{
  "contractName": "KerwinToken",
  "abi": [
    {
      "inputs": [],
      "stateMutability": "nonpayable",
      "type": "constructor"
    },
    {
      "anonymous": false,
      "inputs": [
        {
          "indexed": true,
          "internalType": "address",
          "name": "_owner",
          "type": "address"
        },
        {
          "indexed": true,
          "internalType": "address",
          "name": "_spender",
          "type": "address"
        },
        {
          "indexed": false,
          "internalType": "uint256",
          "name": "_value",
          "type": "uint256"
        }
      ],
      "name": "Approval",
      "type": "event"
    },
    {
      "anonymous": false,
      "inputs": [
        {
          "indexed": true,
          "internalType": "address",
          "name": "_to",
          "type": "address"
        },
        {
          "indexed": false,
          "internalType": "uint256",
          "name": "_value",
          "type": "uint256"
        }
      ],
      "name": "Mint",
      "type": "event"
    },
    {
      "anonymous": false,
      "inputs": [
        {
          "indexed": true,
          "internalType": "address",
          "name": "_from",
          "type": "address"
        },
        {
          "indexed": true,
          "internalType": "address",
          "name": "_to",
          "type": "address"
        },
        {
          "indexed": false,
          "internalType": "uint256",
          "name": "_value",
          "type": "uint256"
        }
      ],
      "name": "Transfer",
      "type": "event"
    },
    {
      "inputs": [
        {
          "internalType": "address",
          "name": "",
          "type": "address"
        },
        {
          "internalType": "address",
          "name": "",
          "type": "address"
        }
      ],
      "name": "allowance",
      "outputs": [
        {
          "internalType": "uint256",
          "name": "",
          "type": "uint256"
        }
      ],
      "stateMutability": "view",
      "type": "function",
      "constant": true
    },
    {
      "inputs": [
        {
          "internalType": "address",
          "name": "",
          "type": "address"
        }
      ],
      "name": "balanceOf",
      "outputs": [
        {
          "internalType": "uint256",
          "name": "",
          "type": "uint256"
        }
      ],
      "stateMutability": "view",
      "type": "function",
      "constant": true
    },
    {
      "inputs": [],
      "name": "decimals",
      "outputs": [
        {
          "internalType": "uint256",
          "name": "",
          "type": "uint256"
        }
      ],
      "stateMutability": "view",
      "type": "function",
      "constant": true
    },
    {
      "inputs": [],
      "name": "name",
      "outputs": [
        {
          "internalType": "string",
          "name": "",
          "type": "string"
        }
      ],
      "stateMutability": "view",
      "type": "function",
      "constant": true
    },
    {
      "inputs": [],
      "name": "owner",
      "outputs": [
        {
          "internalType": "address",
          "name": "",
          "type": "address"
        }
      ],
      "stateMutability": "view",
      "type": "function",
      "constant": true
    },
    {
      "inputs": [],
      "name": "symbol",
      "outputs": [
        {
          "internalType": "string",
          "name": "",
          "type": "string"
        }
      ],
      "stateMutability": "view",
      "type": "function",
      "constant": true
    },
    {
      "inputs": [],
      "name": "totalSupply",
      "outputs": [
        {
          "internalType": "uint256",
          "name": "",
          "type": "uint256"
        }
      ],
      "stateMutability": "view",
      "type": "function",
      "constant": true
    },
    {
      "inputs": [
        {
          "internalType": "address",
          "name": "_to",
          "type": "address"
        },
        {
          "internalType": "uint256",
          "name": "_amount",
          "type": "uint256"
        }
      ],
      "name": "mint",
      "outputs": [
        {
          "internalType": "bool",
          "name": "success",
          "type": "bool"
        }
      ],
      "stateMutability": "nonpayable",
      "type": "function"
    },
    {
      "inputs": [
        {
          "internalType": "address",
          "name": "_to",
          "type": "address"
        },
        {
          "internalType": "uint256",
          "name": "_value",
          "type": "uint256"
        }
      ],
      "name": "transfer",
      "outputs": [
        {
          "internalType": "bool",
          "name": "success",
          "type": "bool"
        }
      ],
      "stateMutability": "nonpayable",
      "type": "function"
    },
    {
      "inputs": [
        {
          "internalType": "address",
          "name": "_spender",
          "type": "address"
        },
        {
          "internalType": "uint256",
          "name": "_value",
          "type": "uint256"
        }
      ],
      "name": "approve",
      "outputs": [
        {
          "internalType": "bool",
          "name": "success",
          "type": "bool"
        }
      ],
      "stateMutability": "nonpayable",
      "type": "function"
    },
    {
      "inputs": [
        {
          "internalType": "address",
          "name": "_from",
          "type": "address"
        },
        {
          "internalType": "address",
          "name": "_to",
          "type": "address"
        },
        {
          "internalType": "uint256",
          "name": "_value",
          "type": "uint256"
        }
      ],
      "name": "transferFrom",
      "outputs": [
        {
          "internalType": "bool",
          "name": "success",
          "type": "bool"
        }
      ],
      "stateMutability": "nonpayable",
      "type": "function"
    }
  ],
  "bytecode": "0x60806040526040518060400160405280600b81526020017f4b657277696e546f6b656e000000000000000000000000000000000000000000815250600090816200004a9190620003d9565b506040518060400160405280600381526020017f4b5754000000000000000000000000000000000000000000000000000000000081525060019081620000919190620003d9565b506012600255348015620000a457600080fd5b5033600460006101000a81548173ffffffffffffffffffffffffffffffffffffffff021916908373ffffffffffffffffffffffffffffffffffffffff160217905550600254600a620000f7919062000643565b620f424062000107919062000694565b600381905550600354600560003373ffffffffffffffffffffffffffffffffffffffff1673ffffffffffffffffffffffffffffffffffffffff16815260200190815260200160002081905550620006df565b600081519050919050565b7f4e487b7100000000000000000000000000000000000000000000000000000000600052604160045260246000fd5b7f4e487b7100000000000000000000000000000000000000000000000000000000600052602260045260246000fd5b60006002820490506001821680620001db57607f821691505b602082108103620001f157620001f062000193565b5b50919050565b60008190508160005260206000209050919050565b60006020601f8301049050919050565b60008160020a8302905092915050565b6000600883026200025e7fffffffffffffffffffffffffffffffffffffffffffffffffffffffffffffffff826200021c565b6200026a86836200021c565b95508019841693508086168417925050509392505050565b6000819050919050565b6000819050919050565b6000620002b7620002b1620002ab8462000282565b6200028c565b62000282565b9050919050565b6000819050919050565b620002d38362000296565b620002eb620002e282620002be565b8484546200022c565b825550505050565b600090565b62000302620002f3565b6200030f818484620002c8565b505050565b5b8181101562000337576200032b600082620002f8565b60018101905062000315565b5050565b601f82111562000386576200035081620001f7565b6200035b846200020c565b810160208510156200036b578190505b620003836200037a856200020c565b83018262000314565b50505b505050565b60008160020a8304905092915050565b6000620003ae600019846008026200038b565b1980831691505092915050565b6000620003c983836200039b565b9150826002028217905092915050565b620003e48262000159565b67ffffffffffffffff8111156200040057620003ff62000164565b5b6200040c8254620001c2565b620004198282856200033b565b600060209050601f8311600181146200045157600084156200043c578287015190505b620004488582620003bb565b865550620004b8565b601f1984166200046186620001f7565b60005b828110156200048b5784890151825560018201915060208501945060208101905062000464565b86831015620004ab5784890151620004a7601f8916826200039b565b8355505b6001600288020188555050505b505050505050565b7f4e487b7100000000000000000000000000000000000000000000000000000000600052601160045260246000fd5b6000600282049050919050565b6000808291508390505b60018511156200054e57808604811115620005265762000525620004c0565b5b6001851615620005365780820291505b80810290506200054685620004ef565b945062000506565b94509492505050565b6000826200056957600190506200063c565b816200057957600090506200063c565b81600181146200059257600281146200059d57620005d3565b60019150506200063c565b60ff841115620005b257620005b1620004c0565b5b8360020a915084821115620005cc57620005cb620004c0565b5b506200063c565b5060208310610133831016604e8410600b84101617156200060d5782820a905083811115620006075762000606620004c0565b5b6200063c565b6200061c8484846001620004fc565b92509050818404811115620006365762000635620004c0565b5b81810290505b9392505050565b6000620006508262000282565b91506200065d8362000282565b92506200068c7fffffffffffffffffffffffffffffffffffffffffffffffffffffffffffffffff848462000557565b905092915050565b6000620006a18262000282565b9150620006ae8362000282565b9250828202620006be8162000282565b91508282048414831517620006d857620006d7620004c0565b5b5092915050565b6111ab80620006ef6000396000f3fe608060405234801561001057600080fd5b50600436106100c6576000357c01000000000000000000000000000000000000000000000000000000009004806340c10f191161008e57806340c10f191461018557806370a08231146101b55780638da5cb5b146101e557806395d89b4114610203578063a9059cbb14610221578063dd62ed3e14610251576100c6565b806306fdde03146100cb578063095ea7b3146100e957806318160ddd1461011957806323b872dd14610137578063313ce56714610167575b600080fd5b6100d3610281565b6040516100e09190610ccf565b60405180910390f35b61010360048036038101906100fe9190610d8a565b61030f565b6040516101109190610de5565b60405180910390f35b610121610439565b60405161012e9190610e0f565b60405180910390f35b610151600480360381019061014c9190610e2a565b61043f565b60405161015e9190610de5565b60405180910390f35b61016f61063b565b60405161017c9190610e0f565b60405180910390f35b61019f600480360381019061019a9190610d8a565b610641565b6040516101ac9190610de5565b60405180910390f35b6101cf60048036038101906101ca9190610e7d565b6108f3565b6040516101dc9190610e0f565b60405180910390f35b6101ed61090b565b6040516101fa9190610eb9565b60405180910390f35b61020b610931565b6040516102189190610ccf565b60405180910390f35b61023b60048036038101906102369190610d8a565b6109bf565b6040516102489190610de5565b60405180910390f35b61026b60048036038101906102669190610ed4565b610a0e565b6040516102789190610e0f565b60405180910390f35b6000805461028e90610f43565b80601f01602080910402602001604051908101604052809291908181526020018280546102ba90610f43565b80156103075780601f106102dc57610100808354040283529160200191610307565b820191906000526020600020905b8154815290600101906020018083116102ea57829003601f168201915b505050505081565b60008073ffffffffffffffffffffffffffffffffffffffff168373ffffffffffffffffffffffffffffffffffffffff160361034957600080fd5b81600660003373ffffffffffffffffffffffffffffffffffffffff1673ffffffffffffffffffffffffffffffffffffffff16815260200190815260200160002060008573ffffffffffffffffffffffffffffffffffffffff1673ffffffffffffffffffffffffffffffffffffffff168152602001908152602001600020819055508273ffffffffffffffffffffffffffffffffffffffff163373ffffffffffffffffffffffffffffffffffffffff167f8c5be1e5ebec7d5bd14f71427d1e84f3dd0314c0f7b2291e5b200ac8c7c3b925846040516104279190610e0f565b60405180910390a36001905092915050565b60035481565b600081600560008673ffffffffffffffffffffffffffffffffffffffff1673ffffffffffffffffffffffffffffffffffffffff16815260200190815260200160002054101561048d57600080fd5b81600660008673ffffffffffffffffffffffffffffffffffffffff1673ffffffffffffffffffffffffffffffffffffffff16815260200190815260200160002060003373ffffffffffffffffffffffffffffffffffffffff1673ffffffffffffffffffffffffffffffffffffffff16815260200190815260200160002054101561051657600080fd5b6105a582600660008773ffffffffffffffffffffffffffffffffffffffff1673ffffffffffffffffffffffffffffffffffffffff16815260200190815260200160002060003373ffffffffffffffffffffffffffffffffffffffff1673ffffffffffffffffffffffffffffffffffffffff16815260200190815260200160002054610a3390919063ffffffff16565b600660008673ffffffffffffffffffffffffffffffffffffffff1673ffffffffffffffffffffffffffffffffffffffff16815260200190815260200160002060003373ffffffffffffffffffffffffffffffffffffffff1673ffffffffffffffffffffffffffffffffffffffff16815260200190815260200160002081905550610630848484610a49565b600190509392505050565b60025481565b6000600460009054906101000a900473ffffffffffffffffffffffffffffffffffffffff1673ffffffffffffffffffffffffffffffffffffffff163373ffffffffffffffffffffffffffffffffffffffff16146106d3576040517f08c379a00000000000000000000000000000000000000000000000000000000081526004016106ca90610fe6565b60405180910390fd5b600073ffffffffffffffffffffffffffffffffffffffff168373ffffffffffffffffffffffffffffffffffffffff1603610742576040517f08c379a000000000000000000000000000000000000000000000000000000000815260040161073990611052565b60405180910390fd5b60008211610785576040517f08c379a000000000000000000000000000000000000000000000000000000000815260040161077c906110be565b60405180910390fd5b61079a82600354610c2990919063ffffffff16565b6003819055506107f282600560008673ffffffffffffffffffffffffffffffffffffffff1673ffffffffffffffffffffffffffffffffffffffff16815260200190815260200160002054610c2990919063ffffffff16565b600560008573ffffffffffffffffffffffffffffffffffffffff1673ffffffffffffffffffffffffffffffffffffffff168152602001908152602001600020819055508273ffffffffffffffffffffffffffffffffffffffff16600073ffffffffffffffffffffffffffffffffffffffff167fddf252ad1be2c89b69c2b068fc378daa952ba7f163c4a11628f55a4df523b3ef846040516108939190610e0f565b60405180910390a38273ffffffffffffffffffffffffffffffffffffffff167f0f6798a560793a54c3bcfe86a93cde1e73087d944c0ea20544137d4121396885836040516108e19190610e0f565b60405180910390a26001905092915050565b60056020528060005260406000206000915090505481565b600460009054906101000a900473ffffffffffffffffffffffffffffffffffffffff1681565b6001805461093e90610f43565b80601f016020809104026020016040519081016040528092919081815260200182805461096a90610f43565b80156109b75780601f1061098c576101008083540402835291602001916109b7565b820191906000526020600020905b81548152906001019060200180831161099a57829003601f168201915b505050505081565b60008073ffffffffffffffffffffffffffffffffffffffff168373ffffffffffffffffffffffffffffffffffffffff16036109f957600080fd5b610a04338484610a49565b6001905092915050565b6006602052816000526040600020602052806000526040600020600091509150505481565b60008183610a41919061110d565b905092915050565b80600560008573ffffffffffffffffffffffffffffffffffffffff1673ffffffffffffffffffffffffffffffffffffffff168152602001908152602001600020541015610a9557600080fd5b610ae781600560008673ffffffffffffffffffffffffffffffffffffffff1673ffffffffffffffffffffffffffffffffffffffff16815260200190815260200160002054610a3390919063ffffffff16565b600560008573ffffffffffffffffffffffffffffffffffffffff1673ffffffffffffffffffffffffffffffffffffffff16815260200190815260200160002081905550610b7c81600560008573ffffffffffffffffffffffffffffffffffffffff1673ffffffffffffffffffffffffffffffffffffffff16815260200190815260200160002054610c2990919063ffffffff16565b600560008473ffffffffffffffffffffffffffffffffffffffff1673ffffffffffffffffffffffffffffffffffffffff168152602001908152602001600020819055508173ffffffffffffffffffffffffffffffffffffffff168373ffffffffffffffffffffffffffffffffffffffff167fddf252ad1be2c89b69c2b068fc378daa952ba7f163c4a11628f55a4df523b3ef83604051610c1c9190610e0f565b60405180910390a3505050565b60008183610c379190611141565b905092915050565b600081519050919050565b600082825260208201905092915050565b60005b83811015610c79578082015181840152602081019050610c5e565b60008484015250505050565b6000601f19601f8301169050919050565b6000610ca182610c3f565b610cab8185610c4a565b9350610cbb818560208601610c5b565b610cc481610c85565b840191505092915050565b60006020820190508181036000830152610ce98184610c96565b905092915050565b600080fd5b600073ffffffffffffffffffffffffffffffffffffffff82169050919050565b6000610d2182610cf6565b9050919050565b610d3181610d16565b8114610d3c57600080fd5b50565b600081359050610d4e81610d28565b92915050565b6000819050919050565b610d6781610d54565b8114610d7257600080fd5b50565b600081359050610d8481610d5e565b92915050565b60008060408385031215610da157610da0610cf1565b5b6000610daf85828601610d3f565b9250506020610dc085828601610d75565b9150509250929050565b60008115159050919050565b610ddf81610dca565b82525050565b6000602082019050610dfa6000830184610dd6565b92915050565b610e0981610d54565b82525050565b6000602082019050610e246000830184610e00565b92915050565b600080600060608486031215610e4357610e42610cf1565b5b6000610e5186828701610d3f565b9350506020610e6286828701610d3f565b9250506040610e7386828701610d75565b9150509250925092565b600060208284031215610e9357610e92610cf1565b5b6000610ea184828501610d3f565b91505092915050565b610eb381610d16565b82525050565b6000602082019050610ece6000830184610eaa565b92915050565b60008060408385031215610eeb57610eea610cf1565b5b6000610ef985828601610d3f565b9250506020610f0a85828601610d3f565b9150509250929050565b7f4e487b7100000000000000000000000000000000000000000000000000000000600052602260045260246000fd5b60006002820490506001821680610f5b57607f821691505b602082108103610f6e57610f6d610f14565b5b50919050565b7f4f6e6c79206f776e65722063616e20706572666f726d2074686973206163746960008201527f6f6e000000000000000000000000000000000000000000000000000000000000602082015250565b6000610fd0602283610c4a565b9150610fdb82610f74565b604082019050919050565b60006020820190508181036000830152610fff81610fc3565b9050919050565b7f43616e6e6f74206d696e7420746f207a65726f20616464726573730000000000600082015250565b600061103c601b83610c4a565b915061104782611006565b602082019050919050565b6000602082019050818103600083015261106b8161102f565b9050919050565b7f416d6f756e74206d7573742062652067726561746572207468616e207a65726f600082015250565b60006110a8602083610c4a565b91506110b382611072565b602082019050919050565b600060208201905081810360008301526110d78161109b565b9050919050565b7f4e487b7100000000000000000000000000000000000000000000000000000000600052601160045260246000fd5b600061111882610d54565b915061112383610d54565b925082820390508181111561113b5761113a6110de565b5b92915050565b600061114c82610d54565b915061115783610d54565b925082820190508082111561116f5761116e6110de565b5b9291505056fea264697066735822122098bc2a01f828c4be2c32770ceeefa395f9cd44c3522075165e892b4840d9104364736f6c63430008110033",
  "immutableReferences": {},
  "source": "// SPDX-License-Identifier: GPL-3.0\n// Source code license: MIT...\npragma solidity >=0.4.16 <0.9.0; // Restrict Solidity compiler version\nimport \"openzeppelin-solidity/contracts/utils/math/SafeMath.sol\";\n\ncontract KerwinToken {\n    using SafeMath for uint256; // Enable SafeMath's sub() and add() methods for uint256\n\n    string public name = \"KerwinToken\";\n    string public symbol = \"KWT\";\n\n    uint256 public decimals = 18; // 1 KerwinToken = 10**decimals (wei)\n    uint256 public totalSupply;\n    // Auto-generated getter methods\n\n    // Contract owner address\n    address public owner;\n\n    // Mappings\n    mapping(address => uint256) public balanceOf; // Tracks token balances\n    mapping(address => mapping(address => uint256)) public allowance; // Tracks spending approvals\n\n    // Events\n    event Transfer(address indexed _from, address indexed _to, uint256 _value);\n    event Approval(\n        address indexed _owner,\n        address indexed _spender,\n        uint256 _value\n    );\n    event Mint(address indexed _to, uint256 _value);\n\n    // Modifier to restrict function access to the owner only\n    modifier onlyOwner() {\n        require(msg.sender == owner, \"Only owner can perform this action\");\n        _;\n    }\n\n    constructor() {\n        owner = msg.sender; // Set the deployer as the owner\n        totalSupply = 1000000 * (10 ** decimals);\n        // Assign total supply to the deployer's address\n        balanceOf[msg.sender] = totalSupply;\n    }\n\n    // Mint new tokens and assign them to a specific address\n    // Only the contract owner can call this function\n    function mint(\n        address _to,\n        uint256 _amount\n    ) public onlyOwner returns (bool success) {\n        require(_to != address(0), \"Cannot mint to zero address\");\n        require(_amount > 0, \"Amount must be greater than zero\");\n\n        // Update balances and total supply\n        totalSupply = totalSupply.add(_amount);\n        balanceOf[_to] = balanceOf[_to].add(_amount);\n\n        // Emit transfer event from address(0) (minting)\n        emit Transfer(address(0), _to, _amount);\n        emit Mint(_to, _amount);\n\n        return true;\n    }\n\n    // Transfers tokens to another address\n    function transfer(\n        address _to,\n        uint256 _value\n    ) public returns (bool success) {\n        require(_to != address(0)); // Prevent burning tokens\n        _transfer(msg.sender, _to, _value);\n        return true;\n    }\n\n    // Internal transfer logic\n    function _transfer(address _from, address _to, uint256 _value) internal {\n        require(balanceOf[_from] >= _value); // Check sender's balance\n        // Deduct from sender and add to receiver\n        balanceOf[_from] = balanceOf[_from].sub(_value);\n        balanceOf[_to] = balanceOf[_to].add(_value);\n\n        // Emit event\n        emit Transfer(_from, _to, _value);\n    }\n\n    // Approves a spender (e.g., an exchange) to spend tokens\n    function approve(\n        address _spender,\n        uint256 _value\n    ) public returns (bool success) {\n        // msg.sender: Current logged-in account\n        // _spender: Third-party exchange address\n        // _value: Approved amount\n        require(_spender != address(0));\n\n        allowance[msg.sender][_spender] = _value;\n        emit Approval(msg.sender, _spender, _value);\n        return true;\n        /*\n            Example allowance structure:\n            {\n                \"kerwin\": {\n                    \"ExchangeA\": 100,\n                    \"ExchangeB\": 200\n                },\n                \"xiaoming\": {\n                    \"ExchangeA\": 200,\n                    \"ExchangeB\": 100\n                }\n            }\n        */\n    }\n\n    // Called by an approved exchange to transfer tokens\n    function transferFrom(\n        address _from,\n        address _to,\n        uint256 _value\n    ) public returns (bool success) {\n        // _from: Token holder's address\n        // _to: Recipient address\n        // msg.sender: Exchange address\n        require(balanceOf[_from] >= _value);\n        require(allowance[_from][msg.sender] >= _value);\n\n        allowance[_from][msg.sender] = allowance[_from][msg.sender].sub(_value);\n        _transfer(_from, _to, _value);\n        return true;\n    }\n}\n",
  "sourcePath": "C:\\Users\\Fish\\Desktop\\dapp-dex\\MyDeFi\\dapp\\contracts\\KerwinToken.sol",
  "compiler": {
    "name": "solc",
    "version": "0.8.17+commit.8df45f5f.Emscripten.clang"
  },
  "schemaVersion": "3.4.16",
  "updatedAt": "2025-04-12T11:30:08.400Z",
  "networkType": "ethereum",
  "devdoc": {
    "kind": "dev",
    "methods": {},
    "version": 1
  },
  "userdoc": {
    "kind": "user",
    "methods": {},
    "version": 1
  }
}